:100000000C942A000C9400000C9400000C94000046
:100010000C9400000C9400000C9400000C94000060
:100020000C9400000C9400000C9400000C94000050
:100030000C9400000C9400000C9400000C94000040
:100040000C9400000C9400000C9400000C94000030
:100050000C940000F894EE27ECBBF1E0FBBFEBBF83
:10006000E5BF8DE0A2E0BB27ED938A95E9F780E03C
:1000700098E0A0E6ED930197E9F7EFE5EDBFE8E042
:10008000EEBFC0E6D2E00C944500E7E0EABBD89AA8
:10009000D998DA98A0E7B7E10E945E00D898D99A7B
:1000A000DA98A0EDB7E00E945E00D898D998DA9A65
:1000B000A0EABFE00E945E00EACFFFCF109639F0C1
:1000C0008AEF90E00197F1F7A8951197C9F7089585
:00000001FF
