:100000000C942A000C9400000C9400000C94000046
:100010000C9400000C9400000C9400000C94000060
:100020000C9400000C9400000C9400000C94000050
:100030000C9400000C9400000C9400000C94000040
:100040000C9400000C9400000C9400000C94000030
:100050000C940000F894EE27ECBBF1E0FBBFEBBF83
:10006000E5BF8DE0A2E0BB27ED938A95E9F780E03C
:1000700098E0A0E6ED930197E9F7EFE5EDBFE8E042
:10008000EEBFC0E6D2E00C945B00BA93AA93EC8179
:10009000E03011F4909801C0909AEA81E03011F4B8
:1000A000919801C0919AE881E03011F4929801C0D2
:1000B000929A26960895EFEFE1BBE0E0F0E0FA9324
:1000C000EA93FA93EA93A0E0B0E0DFDFF6CFFFCF48
:00000001FF
