:100000000C942F000C9400000C9400000C94000041
:100010000C9400000C9400000C9400000C94000060
:100020000C9400000C9400000C9400000C94000050
:100030000C9400000C9400000C9400000C94000040
:100040000C9400000C9400000C9400000C94000030
:100050000C940000FC60DAF266B6BEE0FEF6F8949E
:10006000EE27ECBBF1E0FBBFEBBFE5BF8DE0A2E00C
:10007000BB27ED938A95E9F780E098E0A0E6ED9341
:100080000197E9F7EFE5EDBFE8E0EEBFC0E6D2E0AB
:100090000C944A002A978AE0A0E0B0E0E4E5F0E0A2
:1000A0000E948100EFEFE1BB2297E9E0F0E0E883F6
:1000B000F983A881B9810E947D0094F4E881F981D7
:1000C000DE011296AE0FBF1FEC91E2BBA8EEB3E0CB
:1000D0000E947300E881F9813197E883F983E9CFC1
:1000E0002296E2CFFFCF109639F08AEF90E0019789
:1000F000F1F7A8951197C9F7089500240A160B0681
:100100000895AC0FBD1F05900D928A95E1F70895F3
:00000001FF
