:0A0000000C9433000C9400000C94E3
:10000A0000000C9400000C9400000C9400000C9466
:10001A0000000C9400000C9400000C9400000C9456
:10002A0000000C9400000C9400000C9400000C9446
:10003A0000000C9400000C9400000C9400000C9436
:10004A0000000C9400000C940000FC60DAF266B622
:10005A00BEE0FEF60A00600254000000F894EE27A3
:10006A00ECBBF1E0FBBFEBBFE5BF8DE0A2E0BB2735
:10007A00ED938A95E9F780E098E0A0E6ED93019781
:10008A00E9F7EEE5F0E085919591009761F0A59189
:10009A00B59105901590BF01F00105900D92019759
:1000AA00E1F7FB01F0CFEFE5EDBFE8E0EEBFC0E618
:1000BA00D2E00C947B00BA93AA931A930A930A810A
:1000CA001B810024001601066CF4A0E6B2E0A00F22
:1000DA00B11FEC91E2BBA8EEB3E00E94930001507D
:1000EA001040EFCF1981088124960895EFEFE1BB04
:1000FA00E7E0EABBD89AD998DA98A9E0B0E0DBDF62
:10010A00D898D99ADA98A3E0B0E0D5DFD898D998E8
:10011A00DA9AA9E0B0E0CFDFEDCFFFCF109639F041
:10012A008AEF90E00197F1F7A8951197C9F708951A
:00000001FF
